{
  "contractName": "Faucet",
  "abi": [
    {
      "inputs": [
        {
          "internalType": "address",
          "name": "",
          "type": "address"
        }
      ],
      "name": "existFunders",
      "outputs": [
        {
          "internalType": "bool",
          "name": "",
          "type": "bool"
        }
      ],
      "stateMutability": "view",
      "type": "function",
      "constant": true
    },
    {
      "inputs": [
        {
          "internalType": "uint256",
          "name": "",
          "type": "uint256"
        }
      ],
      "name": "funders",
      "outputs": [
        {
          "internalType": "address",
          "name": "",
          "type": "address"
        }
      ],
      "stateMutability": "view",
      "type": "function",
      "constant": true
    },
    {
      "inputs": [],
      "name": "numberOfFunders",
      "outputs": [
        {
          "internalType": "uint256",
          "name": "",
          "type": "uint256"
        }
      ],
      "stateMutability": "view",
      "type": "function",
      "constant": true
    },
    {
      "inputs": [
        {
          "internalType": "address",
          "name": "newOwner",
          "type": "address"
        }
      ],
      "name": "transferOwnerShip",
      "outputs": [],
      "stateMutability": "nonpayable",
      "type": "function"
    },
    {
      "inputs": [],
      "name": "addFunds",
      "outputs": [],
      "stateMutability": "payable",
      "type": "function",
      "payable": true
    },
    {
      "inputs": [
        {
          "internalType": "uint256",
          "name": "amount",
          "type": "uint256"
        }
      ],
      "name": "withDrawFunds",
      "outputs": [],
      "stateMutability": "nonpayable",
      "type": "function"
    }
  ],
  "bytecode": "0x6080604052600060035534801561001557600080fd5b50336000806101000a81548173ffffffffffffffffffffffffffffffffffffffff021916908373ffffffffffffffffffffffffffffffffffffffff16021790555061079b806100656000396000f3fe6080604052600436106100555760003560e01c80635ccb281a1461005a578063788d35d3146100975780638863dd1a146100c0578063a26759cb146100e9578063dc0d3dff146100f3578063dc79a7fc14610130575b600080fd5b34801561006657600080fd5b50610081600480360381019061007c919061049e565b61015b565b60405161008e91906104e6565b60405180910390f35b3480156100a357600080fd5b506100be60048036038101906100b99190610537565b61017b565b005b3480156100cc57600080fd5b506100e760048036038101906100e2919061049e565b610212565b005b6100f16102e3565b005b3480156100ff57600080fd5b5061011a60048036038101906101159190610537565b610402565b6040516101279190610573565b60405180910390f35b34801561013c57600080fd5b50610145610435565b604051610152919061059d565b60405180910390f35b60016020528060005260406000206000915054906101000a900460ff1681565b80670de0b6b3a76400008111156101c7576040517f08c379a00000000000000000000000000000000000000000000000000000000081526004016101be9061063b565b60405180910390fd5b3373ffffffffffffffffffffffffffffffffffffffff166108fc839081150290604051600060405180830381858888f1935050505015801561020d573d6000803e3d6000fd5b505050565b60008054906101000a900473ffffffffffffffffffffffffffffffffffffffff1673ffffffffffffffffffffffffffffffffffffffff163373ffffffffffffffffffffffffffffffffffffffff16146102a0576040517f08c379a0000000000000000000000000000000000000000000000000000000008152600401610297906106cd565b60405180910390fd5b806000806101000a81548173ffffffffffffffffffffffffffffffffffffffff021916908373ffffffffffffffffffffffffffffffffffffffff16021790555050565b6000339050600160008273ffffffffffffffffffffffffffffffffffffffff1673ffffffffffffffffffffffffffffffffffffffff16815260200190815260200160002060009054906101000a900460ff166103ff5760006003600081548092919061034e9061071c565b919050559050816002600083815260200190815260200160002060006101000a81548173ffffffffffffffffffffffffffffffffffffffff021916908373ffffffffffffffffffffffffffffffffffffffff16021790555060018060008473ffffffffffffffffffffffffffffffffffffffff1673ffffffffffffffffffffffffffffffffffffffff16815260200190815260200160002060006101000a81548160ff021916908315150217905550505b50565b60026020528060005260406000206000915054906101000a900473ffffffffffffffffffffffffffffffffffffffff1681565b60035481565b600080fd5b600073ffffffffffffffffffffffffffffffffffffffff82169050919050565b600061046b82610440565b9050919050565b61047b81610460565b811461048657600080fd5b50565b60008135905061049881610472565b92915050565b6000602082840312156104b4576104b361043b565b5b60006104c284828501610489565b91505092915050565b60008115159050919050565b6104e0816104cb565b82525050565b60006020820190506104fb60008301846104d7565b92915050565b6000819050919050565b61051481610501565b811461051f57600080fd5b50565b6000813590506105318161050b565b92915050565b60006020828403121561054d5761054c61043b565b5b600061055b84828501610522565b91505092915050565b61056d81610460565b82525050565b60006020820190506105886000830184610564565b92915050565b61059781610501565b82525050565b60006020820190506105b2600083018461058e565b92915050565b600082825260208201905092915050565b7f63616e6e6f74207769746864726177206d6f7265207468616e2031206574686560008201527f7200000000000000000000000000000000000000000000000000000000000000602082015250565b60006106256021836105b8565b9150610630826105c9565b604082019050919050565b6000602082019050818103600083015261065481610618565b9050919050565b7f73686f756c64206265206f776e657220746f206578656375746520746869732060008201527f66756e6374696f6e000000000000000000000000000000000000000000000000602082015250565b60006106b76028836105b8565b91506106c28261065b565b604082019050919050565b600060208201905081810360008301526106e6816106aa565b9050919050565b7f4e487b7100000000000000000000000000000000000000000000000000000000600052601160045260246000fd5b600061072782610501565b91507fffffffffffffffffffffffffffffffffffffffffffffffffffffffffffffffff82141561075a576107596106ed565b5b60018201905091905056fea2646970667358221220f2f90002bd0ece8f756a6f43d88ffc49e80c469c923a40c6c3a92b82382fc30064736f6c634300080c0033",
  "immutableReferences": {},
  "source": "// SPDX-License-Identifier: MIT\r\npragma solidity >=0.4.22 <0.9.0;\r\n\r\nimport './Owner.sol';\r\n\r\ncontract Faucet is Owner  {\r\n\r\n    mapping(address => bool) public existFunders;\r\n    mapping(uint => address) public funders;\r\n    uint public numberOfFunders = 0; \r\n\r\n\r\n    modifier amountLimit (uint amount){\r\n        require(amount <= 1000000000000000000,'cannot withdraw more than 1 ether');\r\n        _;\r\n\r\n    }\r\n\r\n\r\n\r\n\r\n    function addFunds() external payable{\r\n        address funder = msg.sender;\r\n\r\n        if(!existFunders[funder]){\r\n            uint index = numberOfFunders++;\r\n            funders[index] = funder;\r\n            existFunders[funder] = true;\r\n        }\r\n\r\n    }\r\n\r\n\r\n    function withDrawFunds(uint amount) external amountLimit(amount) {\r\n\r\n        payable(msg.sender).transfer(amount);\r\n\r\n    }\r\n\r\n\r\n\r\n}\r\n\r\n\r\n\r\n// const instance = await Faucet.deployed()\r\n\r\n// instance.addFunds({ from: \"0x24667583F5D5fFe14FE39FE6f10FF37C93254C38\" , amount: '1000000000000' })\r\n\r\n// instance.withDrawFunds({ \"20000000000000\" , {from: accounts[1]})",
  "sourcePath": "C:\\Users\\21693\\Documents\\workspace\\react blockchain tutorial practice\\faucet\\contracts\\Faucet.sol",
  "compiler": {
    "name": "solc",
    "version": "0.8.12+commit.f00d7308.Emscripten.clang"
  },
  "schemaVersion": "3.4.6",
  "updatedAt": "2022-05-08T05:46:45.289Z",
  "networkType": "ethereum",
  "devdoc": {
    "kind": "dev",
    "methods": {},
    "version": 1
  },
  "userdoc": {
    "kind": "user",
    "methods": {},
    "version": 1
  }
}