{
  "contractName": "Owner",
  "abi": [
    {
      "inputs": [],
      "stateMutability": "nonpayable",
      "type": "constructor"
    },
    {
      "inputs": [
        {
          "internalType": "address",
          "name": "newOwner",
          "type": "address"
        }
      ],
      "name": "transferOwnerShip",
      "outputs": [],
      "stateMutability": "nonpayable",
      "type": "function"
    }
  ],
  "bytecode": "0x608060405234801561001057600080fd5b50336000806101000a81548173ffffffffffffffffffffffffffffffffffffffff021916908373ffffffffffffffffffffffffffffffffffffffff160217905550610286806100606000396000f3fe608060405234801561001057600080fd5b506004361061002b5760003560e01c80638863dd1a14610030575b600080fd5b61004a60048036038101906100459190610180565b61004c565b005b60008054906101000a900473ffffffffffffffffffffffffffffffffffffffff1673ffffffffffffffffffffffffffffffffffffffff163373ffffffffffffffffffffffffffffffffffffffff16146100da576040517f08c379a00000000000000000000000000000000000000000000000000000000081526004016100d190610230565b60405180910390fd5b806000806101000a81548173ffffffffffffffffffffffffffffffffffffffff021916908373ffffffffffffffffffffffffffffffffffffffff16021790555050565b600080fd5b600073ffffffffffffffffffffffffffffffffffffffff82169050919050565b600061014d82610122565b9050919050565b61015d81610142565b811461016857600080fd5b50565b60008135905061017a81610154565b92915050565b6000602082840312156101965761019561011d565b5b60006101a48482850161016b565b91505092915050565b600082825260208201905092915050565b7f73686f756c64206265206f776e657220746f206578656375746520746869732060008201527f66756e6374696f6e000000000000000000000000000000000000000000000000602082015250565b600061021a6028836101ad565b9150610225826101be565b604082019050919050565b600060208201905081810360008301526102498161020d565b905091905056fea2646970667358221220b6c05b92cc7be3725952da2ecd9cf17f17e065901d8f8ffb36055c6fc03796b064736f6c634300080c0033",
  "immutableReferences": {},
  "source": "// SPDX-License-Identifier: MIT\r\npragma solidity >=0.4.22 <0.9.0;\r\n\r\ncontract Owner {\r\n\r\n    address owner;\r\n\r\n    constructor(){\r\n\r\n        owner = msg.sender;\r\n\r\n    }\r\n\r\n\r\n    modifier isOwner {\r\n\r\n        require(msg.sender == owner,'should be owner to execute this function');\r\n        _;\r\n    }\r\n\r\n\r\n    function transferOwnerShip(address newOwner) external isOwner {\r\n        owner = newOwner;\r\n\r\n    }\r\n\r\n\r\n\r\n}",
  "sourcePath": "C:\\Users\\21693\\Documents\\workspace\\react blockchain tutorial practice\\faucet\\contracts\\Owner.sol",
  "compiler": {
    "name": "solc",
    "version": "0.8.12+commit.f00d7308.Emscripten.clang"
  },
  "schemaVersion": "3.4.6",
  "updatedAt": "2022-05-08T05:46:39.427Z",
  "devdoc": {
    "kind": "dev",
    "methods": {},
    "version": 1
  },
  "userdoc": {
    "kind": "user",
    "methods": {},
    "version": 1
  }
}